:100000000C943D000C945A000C945A000C945A0025
:100010000C945A000C945A000C9419060C945A0033
:100020000C945A000C945A000C945A000C94600DD5
:100030000C945A000C945A000C9458010C945A00D9
:100040000C945A000C945A000C94E2130C940A1568
:100050000C945A000C945A000C94EA060C945A0022
:100060000C945A000C945A008B0355041F04C103CE
:10007000DD04A004F003B5048B0411241FBECFEFF0
:10008000D8E0DEBFCDBF13E0A0E0B1E0EAE4FDE2DE
:1000900002C005900D92AC3BB107D9F725E0ACEB5F
:1000A000B3E001C01D92AE3AB207E1F70E94B70279
:1000B0000C948F160C940000CF93DF9300D0CDB733
:1000C000DEB78091C403882389F58AEF90E09A8394
:1000D000898387E490E029812150FC01208384E416
:1000E00090E024E430E0F90120812260FC012083CB
:1000F00085E490E025E430E0F90120812360FC01F3
:1001000020838FE590E02FE530E0F9012081206821
:10011000FC0120838EE690E02EE630E0F90120819C
:100120002260FC01208381E08093C40300000F90D3
:100130000F90DF91CF910895CF93DF9300D000D03F
:1001400000D0CDB7DEB79E838D838FE590E0FC01B4
:100150008081082E000C990B807899279A838983D7
:100160008FE590E02FE530E0F90120812F77FC0149
:1001700020838D819E81880F991F84549C4FFC01A0
:10018000808191819C838B8389819A81892B49F01D
:100190008FE590E02FE530E0F90120812068FC0137
:1001A00020838B819C8126960FB6F894DEBF0FBE0C
:1001B000CDBFDF91CF910895CF93DF9300D000D0D2
:1001C00000D0CDB7DEB79C838B837E836D83809117
:1001D000C403882311F40E945C008FE590E0FC01C9
:1001E0008081082E000C990B807899279A83898347
:1001F0008FE590E02FE530E0F90120812F77FC01B9
:1002000020838B819C81880F991F80549C4F2D8166
:100210003E81FC01318320838B819C81880F991F53
:1002200084549C4FFC011182108289819A81892B10
:1002300049F08FE590E02FE530E0F901208120685A
:10024000FC012083000026960FB6F894DEBF0FBE97
:10025000CDBFDF91CF910895CF93DF9300D000D031
:10026000CDB7DEB79C838B831A8219828B819C81E8
:10027000880F991F84549C4FFC01208131818B8110
:100280009C81880F991F80549C4FFC018081918133
:100290002817390721F481E090E09A8389838981C6
:1002A0009A810F900F900F900F90DF91CF9108954A
:1002B0001F920F9200905F000F9211242F933F9393
:1002C0008F939F93EF93FF93CF93DF9300D0CDB79E
:1002D000DEB71A8219822FC089819A81880F991FEF
:1002E00084549C4FFC012081318189819A81880F3F
:1002F000991F80549C4FFC018081918128173907F8
:10030000A8F489819A81880F991F84549C4FFC011D
:10031000808191819C012F5F3F4F89819A81880F55
:10032000991F84549C4FFC013183208389819A81D9
:1003300001969A83898389819A81029768F20000E5
:100340000F900F90DF91CF91FF91EF919F918F913F
:100350003F912F910F9000925F000F901F90189582
:10036000CF93DF93CDB7DEB784E290E024E230E0B4
:10037000F90120812260FC01208385E290E025E2E2
:1003800030E0F90120812D7FFC0120830000DF9106
:10039000CF910895CF93DF93CDB7DEB785E290E09C
:1003A00025E230E0F90120812260FC012083000079
:1003B000DF91CF910895CF93DF93CDB7DEB785E27C
:1003C00090E025E230E0F90120812D7FFC012083BF
:1003D0000000DF91CF910895CF93DF93CDB7DEB7C3
:1003E00085E290E0FC018081882F90E0827099275F
:1003F00021E0892B09F420E0822F90E0DF91CF915A
:100400000895CF93DF9300D0CDB7DEB79A83898369
:1004100089819A819093970480939604109299040D
:1004200010929804109295041092940460E070E089
:1004300080E090E00E94DC000E94DB0100000F9051
:100440000F90DF91CF910895CF93DF93CDB7DEB7B3
:100450008091940490919504009721F0019709F4FC
:1004600051C081C080E090E00E942C01892B09F4EA
:1004700077C02091960430919704809198049091D0
:100480009904820F931FFC018081082E000C990BA8
:100490008D32910531F08E32910591F08097F9F00F
:1004A00027C00E94CA016EEE72E080E090E00E94D8
:1004B000DC0081E090E0909395048093940421C047
:1004C0000E94CA016AEF70E080E090E00E94DC00C8
:1004D00081E090E0909395048093940412C00E9470
:1004E000DB0168EE73E080E090E00E94DC0009C070
:1004F0000E94DB0160E070E080E090E00E94DC00A0
:1005000000002EC080E090E00E942C01892B51F168
:100510000E94DB0164E670E080E090E00E94DC0075
:1005200080919804909199040196909399048093F6
:10053000980480919604909197040E9486169C01DD
:1005400080919804909199048217930720F010925B
:10055000990410929804109295041092940402C089
:10056000000001C000000000DF91CF9108950F93BB
:100570001F93CF93DF931F92CDB7DEB70E94A006E3
:100580000E94B6130E949B090E94A3070E945C066A
:100590000E94AD0D0E94B0010E94290D0E94F90534
:1005A0000E944703198280E391E00E94B30D81E528
:1005B00091E00E94B30D8DE591E00E94B30D80E0C3
:1005C0000E94D0080E943B0D68E873E181E090E052
:1005D0000E94DC000E9402060E94240281E090E05A
:1005E0000E942C01892B31F10E94410D9093010151
:1005F00080930001E091A604F091A7042091A40447
:100600003091A5044091A2045091A3046091A004EC
:100610007091A10480910001909101018F010E94CD
:100620005F030E943B0D68EE73E081E090E00E9462
:10063000DC00D0CF8981882359F40E94260F8823BB
:1006400049F280E691E00E94B30D81E08983C2CF38
:100650000E94280F882369F00E946C0F0E94260FC9
:10066000882309F0B7CF89E791E00E941E0F198215
:10067000B1CF0E947907892B11F40E9468080E946B
:100680007907892B09F0A6CF0E94BB06A3CFCF9391
:10069000DF93CDB7DEB710929B0410929A0400004E
:1006A000DF91CF910895CF93DF93CDB7DEB710924E
:1006B0009B0410929A040000DF91CF9108950F934C
:1006C0001F93CF93DF93CDB7DEB72A970FB6F89479
:1006D000DEBF0FBECDBF9A8389837C836B835E832D
:1006E0004D8338872F831A87098780919A049091C8
:1006F0009B04CC01A0E0B0E040E050E028E030E016
:10070000841B950B2817390708F48FC18C5C9F4F09
:10071000FC010C94661629813A818D819E812817EF
:1007200039079CF086E090E00E945D0686E00E941A
:10073000D0088BE891E00E9401020E94240283E02D
:1007400090E090939B0480939A0429813A81898553
:100750009A85821793070CF457C188E090E00E94B5
:100760005D0688E00E94D0088BE891E00E940102BB
:100770000E94240286E090E090939B0480939A0468
:1007800043C129813A818B819C81281739079CF0CC
:1007900085E090E00E945D0685E00E94D0088DE82B
:1007A00091E00E9401020E94240285E090E0909373
:1007B0009B0480939A0429813A818D819E81281718
:1007C00039070CF023C18FE891E00E9401020E94DA
:1007D000240282E090E090939B0480939A0416C1D7
:1007E00029813A818F819885821793079CF087E051
:1007F00090E00E945D0687E00E94D0088DE891E0BD
:100800000E9401020E94240288E090E090939B04E1
:1008100080939A0429813A8189859A858217930762
:100820000CF0F6C08FE891E00E9401020E942402C1
:1008300081E090E090939B0480939A04E9C0298121
:100840003A818D819E81281739079CF086E090E0DF
:100850000E945D0686E00E94D0088BE891E00E942D
:1008600001020E94240283E090E090939B04809315
:100870009A0429813A8189859A85821793070CF415
:10088000C9C088E090E00E945D0688E00E94D00820
:100890008BE891E00E9401020E94240286E090E031
:1008A00090939B0480939A04B5C029813A818D81ED
:1008B0009E81281739079CF086E090E00E945D0633
:1008C00086E00E94D0088BE891E00E9401020E941D
:1008D000240283E090E090939B0480939A04298102
:1008E0003A8189859A85821793070CF495C088E030
:1008F00090E00E945D0688E00E94D0088BE891E0BD
:100900000E9401020E94240286E090E090939B04E2
:1009100080939A0481C029813A818F8198858217BA
:1009200093070CF07BC08BE891E00E9401020E94CB
:10093000240287E090E090939B0480939A046EC019
:1009400029813A818B819C81281739070CF068C076
:100950008BE891E00E9401020E94240284E090E072
:1009600090939B0480939A045BC029813A818F8184
:1009700098858217930764F08DE891E00E94010248
:100980000E94240288E090E090939B0480939A0454
:1009900029813A8189859A85821793070CF042C094
:1009A0008FE891E00E9401020E94240281E090E021
:1009B00090939B0480939A0435C029813A818D815C
:1009C0009E812817390764F48FE891E00E940102A4
:1009D0000E94240282E090E090939B0480939A040A
:1009E00029813A818B819C8128173907ECF08DE8A9
:1009F00091E00E9401020E94240285E090E0909321
:100A00009B0480939A0410C000000FC000000DC02A
:100A100000000BC0000009C0000007C0000005C0B6
:100A2000000003C0000001C0000000002A960FB6BD
:100A3000F894DEBF0FBECDBFDF91CF911F910F9114
:100A40000895CF93DF93CDB7DEB727970FB6F8940D
:100A5000DEBF0FBECDBF9D838C837F836E831B82E1
:100A60001A821EC08A819B812C813D81820F931F37
:100A7000FC0180819981890F89838FE590E0FC01D9
:100A80008081082E000C990B81709927892B19F011
:100A900089818F5F89838A819B8101969B838A8369
:100AA0002A813B818E819F8128173907D8F289815D
:100AB000809527960FB6F894DEBF0FBECDBFDF91AD
:100AC000CF910895CF93DF9300D0CDB7DEB79A834F
:100AD00089832091A2043091A30489819A812817E7
:100AE000390774F489819A81811594404CF4898185
:100AF0009A819093A1048093A00480E090E002C0CA
:100B000081E090E00F900F90DF91CF910895CF9307
:100B1000DF9300D0CDB7DEB79A8389832091A604F6
:100B20003091A70489819A812817390794F420917C
:100B3000A0043091A10489819A81821793074CF413
:100B400089819A819093A3048093A20480E090E02D
:100B500002C081E090E00F900F90DF91CF91089557
:100B6000CF93DF9300D0CDB7DEB79A8389832091EE
:100B7000A4043091A50489819A812817390794F437
:100B80002091A2043091A30489819A81821793074E
:100B90004CF489819A819093A7048093A60480E005
:100BA00090E002C081E090E00F900F90DF91CF9134
:100BB0000895CF93DF9300D0CDB7DEB79A838983B2
:100BC0002091A6043091A70489819A818217930706
:100BD0004CF489819A819093A5048093A40480E0C9
:100BE00090E002C081E090E00F900F90DF91CF91F4
:100BF0000895E0E6F0E08081886480838FB78068A4
:100C00008FBF0895CF93DF93CDB7DEB7A8950000CF
:100C1000DF91CF9108958FB78F778FBF809160005C
:100C2000806180936000809160008F7B8093600082
:100C3000FFCF1F920F9200905F000F9211242F930D
:100C40003F934F935F936F937F938F939F93AF9354
:100C5000BF93EF93FF93CF93DF9300D0CDB7DEB771
:100C60000E94CA0182E00E94D0081A82198207C03D
:100C70000E949E0889819A8101969A83898389813D
:100C80009A814097ACF30E94D30600000F900F901A
:100C9000DF91CF91FF91EF91BF91AF919F918F9194
:100CA0007F916F915F914F913F912F910F900092A3
:100CB0005F000F901F9018950895CF93DF93EC017C
:100CC00084ED91E00E94B30DBE0180E090E00E94AF
:100CD000E10D89EF91E0DF91CF910C94B30D81E0AC
:100CE0008093C503089580919C04813461F48091C0
:100CF0009D04833541F481E090E020919E042535E8
:100D000021F080E002C080E090E0ECE9F4E020E037
:100D10003191230F34E0EF3AF307D1F7222311F09A
:100D200080E090E0089562E170E082E091E00E944E
:100D30007D1242E162E071E080E490E00C943007C3
:100D40000E947907892BE1F742E16CE974E080E4C5
:100D500090E00E9464070E947306892B49F40E9468
:100D6000930642E16CE974E080E490E00E9464073D
:100D70001092C50308950E947907892B99F48091F8
:100D8000C503882379F062E170E08CE994E00E9469
:100D90007D1242E16CE974E080E490E00E9430074B
:100DA0001092C50308958091C503882379F062E10C
:100DB00070E08CE994E00E947D1242E16CE974E0FD
:100DC00080E490E00E944D071092C5030895FA9ABE
:100DD000F99A08951F920F920FB60F9211242F9334
:100DE0003F934F935F936F937F938F939F93AF93B3
:100DF000BF93EF93FF93E091F2048091B104E81761
:100E000020F0FB981092AE041AC08091AF0490912C
:100E1000B00492BD81BD81E08E0F8093F204F0E0BA
:100E2000EE54FB4F808180BD8091AF049091B0045F
:100E300001969093B0048093AF040E94E706FF915F
:100E4000EF91BF91AF919F918F917F916F915F9142
:100E50004F913F912F910F900FBE0F901F901895BB
:100E60002091AE042111FCCF9093B0048093AF0485
:100E700081E08093AE041092F2044093B104962F67
:100E8000A2EBB4E0FB018E2F891B841718F481912B
:100E90008D93F9CF7894FB9A0895FB01861B970BED
:100EA00050E0DC01AE0FBF1F9F01261B370B24173C
:100EB000350748F4F999FECFB2BDA1BD219120BDFF
:100EC000FA9AF99AEECF08952091AE042111FCCF41
:100ED000FB01861B970B2E2F261B241748F49C0121
:100EE0002E0F3F1F32BD21BDF89A20B52193F3CFBD
:100EF00008958091AE0490E008958031910504F545
:100F000027E0289FA001299F500D1124FA01E753E3
:100F1000FC4F80818132A0F480E090E020E0FA0173
:100F2000E80FF91FE753FC4F3081230F01968730FC
:100F30009105A9F781E090E0222321F080E0089557
:100F400080E090E008956F927F928F929F92AF928F
:100F5000BF92CF92DF92EF92FF920F931F93CF93A6
:100F6000DF930E947907892BE1F709E314E0C0E8D9
:100F7000D0E0BE01675B7C4F47E0CE010E94640772
:100F8000F80111928F012796C03FD10591F749ECE6
:100F9000E42E43E0F42E8701C0E0D0E0D12CB12C48
:100FA00077247A94CE010E947D07892B41F0F801C5
:100FB0008081871520F4BC2E782EDD24D3942196D1
:100FC000095F1F4FC031D10569F7DD2009F46AC000
:100FD000B092C8037092C703CB2DD0E08E010F5F93
:100FE0001F4F872C2FE0A22E37E0932E6801FFE0E1
:100FF000CF22DD24C6010E947D07892B61F4B092C7
:10100000C6038E0101501109609780E1A82EB12C12
:1010100097E0692E3AC09C9CF0019D9CF00D112434
:10102000E753FC4F4081242F30E0882D90E001965B
:101030008F7199272817390711F7C092C803409379
:10104000C703AA940F5F1F4FAA20C9F2842ECECFE8
:10105000F701208130E0872D90E04F968F7199271E
:101060002817390731F5C092C603689CF001699CC6
:10107000F00D1124E753FC4F708001501109F7E087
:10108000EF0EF11C0C171D07A1F0C801B5010E945D
:1010900011166C014C019924C4010E947D07892B13
:1010A000B9F607C08FE08093C8031092C70310926F
:1010B000C603DF91CF911F910F91FF90EF90DF90CA
:1010C000CF90BF90AF909F908F907F906F9008953A
:1010D000EF92FF921F93CF93DF930E947907892BA2
:1010E00039F5E9E3F4E0C0E0D0E081918823E1F054
:1010F00017E01C9FC0011D9F900D11249C012753D8
:101100003C4F790167E070E0C9010E947D12C19FE8
:10111000C001112447E0B70180589F4F0E9430075B
:10112000C75CDB4F188204C02196C031D105E9F6B7
:10113000DF91CF911F91FF90EF900895EF92FF9272
:101140001F93CF93DF93E9E3F4E0C0E0D0E0819117
:101150008823E1F017E01C9FC0011D9F900D112412
:101160009C0127533C4F790167E070E0C9010E9460
:101170007D12C19FC001112447E0B70180589F4FE5
:101180000E944D07C75CDB4F188204C02196C03116
:10119000D105E9F6DF91CF911F91FF90EF9008956F
:1011A000EF92FF920F931F93CF93DF93E82EC0919E
:1011B000C803D0E02196CF70DD278091C60390E070
:1011C0000E947D07F82E8091C7038F5F813218F44B
:1011D0008093C70302C01092C70387E08C9F8001F1
:1011E0008D9F100D112407531C4F8091C703F801E8
:1011F00080830E949D09F8016183728383839483B5
:10120000E582C093C80367E070E0C8010E947D12C8
:10121000C75CDB4F81E088838091C8039091C6034F
:10122000891308C0FF2031F090E001968F70992754
:101230008093C603DF91CF911F910F91FF90EF90A4
:101240000895E9ECF3E0A9E3B4E08FEF4FEF5FEF2F
:10125000BA0191E0808385834183528363837483E1
:101260009D93379624E0E933F207A1F78FE080934E
:10127000C8031092C6031092C70308950F931F93DB
:10128000CF93DF930091C603C02F10E0D0E0CE01D2
:101290000E947D07892B29F02196CF701F5F0C13C8
:1012A000F5CF812FDF91CF911F910F910895AF92CC
:1012B000BF92CF92DF92EF92FF920F931F93CF9343
:1012C000DF936B017C018A0159010E943E0990E085
:1012D000A0E0B0E0C816D906EA06FB06F8F4809153
:1012E000C60390E0C80ED91E8FE0C822DD2487E037
:1012F0008C9DF0018D9DF00D1124E753FC4F8181F1
:101300009281A381B481E80188839983AA83BB83F6
:101310008581F501808381E090E002C080E090E06B
:10132000DF91CF911F910F91FF90EF90DF90CF90C1
:10133000BF90AF9008950C94850D0C94950D60931B
:10134000F3047093F4048093F5049093F6040C94E2
:10135000A10D9C0160E971E00E94FD15892B79F0D7
:10136000C90183709927892B61F4C90164E670E093
:101370000E94FD159C0181E0232B21F402C081E035
:10138000089580E008952F923F924F925F926F925E
:101390007F928F929F92AF92BF92CF92DF92EF9205
:1013A000FF920F931F93CF93DF93CDB7DEB767976D
:1013B0000FB6F894DEBF0FBECDBF2CE0E1E9F1E03F
:1013C000AE014F5F5F4F1A01DA0101900D922A952D
:1013D000E1F7DC012C91220F2056322F330F330F0F
:1013E000230F11963C9111973153230F2D8713969C
:1013F0002C911397022E000C330B205331096AE015
:10140000629FA001639F500D11241496CC900C2C68
:10141000000CDD08B0E3CB1AD108C40ED51E86013E
:1014200001501109FC012681022E000C330B2053C0
:101430003109E8EEF3E02E9FA0012F9F500D3E9F53
:10144000500D1124DC0117962C911797022E000CD9
:10145000330B2053310974E6729F7001739FF00CB7
:101460001124E40EF51E18964C911897042E000CCA
:10147000550B40535109649F9001659F300D112415
:10148000E20EF31E19962C911997F701E20FF11D48
:1014900027FDFA95AF0158507A011B962C911B97A6
:1014A000220F2056322F330F330F230F1C963C91FF
:1014B0001C973053230F298B1E962C911E97220FB9
:1014C0002056322F330F330F230F1F963C911F9757
:1014D0003053230F2A8B51962C915197220F20566F
:1014E000322F330F330F230F52968C918053280FD6
:1014F0002B8BCA010E94A909882321F05D855230F7
:1015000008F08601C70160E971E00E94FD15FC0149
:10151000DB0120E839E540E650EF0E947B162B0105
:101520003C01CF0164E670E00E94FD15FC01DB0187
:1015300020E032EC47E15CEB0E947B164B015C0142
:10154000DF01B695A795B695A79520E83FE146E857
:1015500057E00E947B166B017C01DF01A370BB2763
:1015600020E833E341EE51E00E947B166C8B7D8BCB
:101570008E8B9F8BF1018E2F82199D85891720F408
:101580008191080F111DF7CFA9892A2F30E0A0E122
:10159000BEE00E946C166D877E878F87988BBA8914
:1015A0002B2F30E0ACE3B0E00E946C162D853E8519
:1015B0004F855889260F371F481F591FDA01C90167
:1015C0003B89830F911DA11DB11D480E591E6A1E36
:1015D0007B1E840C951CA61CB71CC80CD91CEA1CCD
:1015E000FB1C8C899D89AE89BF89C80ED91EEA1E55
:1015F000FB1ED80120E831E541E050E00E947B1657
:10160000DC01CB018C0D9D1DAE1DBF1D8093F3042D
:101610009093F404A093F504B093F60467960FB684
:10162000F894DEBF0FBECDBFDF91CF911F910F9118
:10163000FF90EF90DF90CF90BF90AF909F908F90F2
:101640007F906F905F904F903F902F900C94A10DE2
:10165000EF92FF920F931F93CF93DF93CDB7DEB737
:1016600068970FB6F894DEBF0FBECDBF7B012CE0AC
:10167000E1E9F1E0DE011D9601900D922A95E1F776
:101680008E010F5F1F4F2CE0F80111922A95E9F7A8
:101690000E94A9098A83DE011D9680E0F70140813E
:1016A00051819D91F80121918F0130E0290F311D69
:1016B0004217530740F0421B530BF70151834083FD
:1016C0008F5F8C3059F768960FB6F894DEBF0FBE67
:1016D000CDBFDF91CF911F910F91FF90EF900895B3
:1016E0004F925F926F927F928F929F92AF92BF9232
:1016F000CF92DF92EF92FF92CF93DF9300D0CDB7DE
:10170000DEB72B013C0181E090E0A0E0B0E020E8F2
:10171000421629E5520620E6620620EF720618F40A
:1017200080E090E0DC0120E931E0829F5001839F5E
:10173000B00C929FB00C112480E3A81A88EFB80A6D
:10174000C12CD12C7601C39420E8421629E552061B
:1017500020E6620620EF720618F4C12CD12C760127
:10176000A701960160E879E580E690EF0E94ED150B
:1017700073016201C61AD70AE80AF90A81E090E00B
:10178000A0E0B0E0C11422ECD20627E1E2062CEB87
:10179000F20618F480E090E0DC0144E6489F9001F6
:1017A000499F300D1124A20EB31E21E030E040E02D
:1017B00050E0C11482ECD80687E1E8068CEBF8060D
:1017C00018F420E030E0A90160E072EC87E19CEBC6
:1017D0000E94ED15A7019601261B370B480B590BEC
:1017E000CA01B90120E83FE146E857E00E9425160A
:1017F000220F331F220F331FA20EB31E20E833E344
:1018000041EE51E00E9425167501E20EF31E20E81C
:1018100031E541E050E00E9425164B015C013A831E
:101820002983BE016F5F7F4FC7010E94280BD82E0E
:10183000C501B40120E13EE040E050E00E942516E1
:1018400029013A014B015C016EED71E084E191E008
:101850000E94B40C6D2D70E06F5F7F4F42E084E119
:1018600091E00E94C70C69817A816F5F7F4F42E0EF
:1018700087E191E00E94C70C44E0B7018AE191E062
:101880000E94C70C42E0B2018FE191E00E94C70CB8
:10189000C501B4012CE330E040E050E00E94251681
:1018A00049015A016B017C0142E0B40182E291E0FE
:1018B0000E94C70C42E0B60185E291E00E94C70C8D
:1018C00084E191E00F900F90DF91CF91FF90EF9026
:1018D000DF90CF90BF90AF909F908F907F906F9050
:1018E0005F904F9008950F931F930E94950D009164
:1018F000F3041091F4042091F5043091F604600F84
:10190000711F821F931F1F910F910C94700BFB018D
:10191000480F591F8417950729F02191DC012D9359
:10192000CD01F8CF0895480F591F8417950721F06E
:10193000FC016193CF01F9CF0895FB01480F591FB6
:101940008417950759F0DC013D91CD0121913217A3
:1019500040F02317A8F781E090E0089580E090E040
:1019600008958FEF9FEF0895FC01DB018D91BD017C
:10197000882311F08193F9CF10820895FC019F0113
:10198000281B390B41914111FACFC90108959F924B
:10199000AF92BF92CF92DF92EF92FF920F931F937D
:1019A000CF93DF9300D000D01F92CDB7DEB7FC01FC
:1019B0006B019E012F5F3F4F8E010A5F1F4FEE2488
:1019C000E394F12C9AE0992E9E9C50019F9CB00CC0
:1019D0001124C601B5010E94FD15B7010E94FD1535
:1019E000D9016D939D01C61AD10867FDD394750185
:1019F000A017B10749F760E070E084E090E050E0A4
:101A0000D8012E918D01211105C06115710511F4C8
:101A1000009741F4841795072CF4205D219361E031
:101A200070E004C0841795070CF43196019740F7D5
:101A30000F900F900F900F900F90DF91CF911F910B
:101A40000F91FF90EF90DF90CF90BF90AF909F905D
:101A5000089588EC80937C0086E880937A0008954E
:101A600080917A00829586958695837091E089278A
:101A7000817090E00895EAE7F0E0808180648083DF
:101A80000895809178002091790030E0322F22274C
:101A9000A901330F660B770B9A01AB01282BA5E642
:101AA000B0E00E947B1624E630E040E050E00E9467
:101AB0004716DA01C90181519140A109B109089580
:101AC0001F920F920FB60F9211248F939F93AF9393
:101AD000BF938091490490914A04A0914B04B09126
:101AE0004C040196A11DB11D8093490490934A04B2
:101AF000A0934B04B0934C04BF91AF919F918F91F1
:101B00000F900FBE0F901F90189583E294EF909363
:101B1000890080938800109280008CE0809381007F
:101B2000789482E080936F0008952FB7F8946091C5
:101B3000490470914A0480914B0490914C042FBF4A
:101B400008958FB7F8941092490410924A041092A5
:101B50004B0410924C048FBF08950E94CF137894C9
:101B600008950C949315CF93DF93EC01899188230A
:101B700019F00E949315FACFDF91CF910895CF937A
:101B8000C82F90E024E0959587952A95E1F78A3053
:101B900010F4805D01C0895C0E9493158C2F8F70BA
:101BA0008A3010F0895C01C0805DCF910C94931550
:101BB000CF93C82F892F0E94BF0D8C2FCF910C94EB
:101BC000BF0D2F923F924F925F926F927F928F92B2
:101BD0009F92AF92BF92CF92DF92EF92FF920F93BC
:101BE0001F93CF93DF93CDB7DEB763970FB6F8940B
:101BF000DEBF0FBECDBF6B017C0197FF0DC0F0941F
:101C0000E094D094C094C11CD11CE11CF11C81E073
:101C100090E09B8B8A8B02C01B8A1A8AFE01319648
:101C20005F018E01055F1F4FF98BE88B662463947B
:101C3000712C812C912CAAE0B0E09301A4010E94A8
:101C40007B161B012C01C701B6019101A2010E9464
:101C500047169301A4010E944716E889F989219348
:101C6000F98BE88B822F220F990BAA0BBB0BC81A9A
:101C7000D90AEA0AFB0A310142010E171F07D9F6F9
:101C80008A899B89892B19F08DE20E94931520E0A7
:101C900030E0F80182918F01811106C021153105D4
:101CA00019F4EA15FB0529F4805D0E94931521E0E3
:101CB00030E00A151B0569F763960FB6F894DEBF8E
:101CC0000FBECDBFDF91CF911F910F91FF90EF908D
:101CD000DF90CF90BF90AF909F908F907F906F904C
:101CE0005F904F903F902F9008950C9469150C943D
:101CF0009015FF920F931F93CF93DF93EC01062F64
:101D0000F72E18820E94691510E08823D9F00E94EE
:101D10003D158823B9F00E944415803210F0899354
:101D20001F5FE02FFF2D482F50E02191222339F033
:101D3000022E000C330B42175307B9F702C08D3047
:101D400051F71882812FDF91CF911F910F91FF9052
:101D500008950F931F93CF93DF938C01EC0169914A
:101D600070E080E090E00E94E10D0C5F1F4F8EE27A
:101D70000E949315699170E080E090E00E94E10D6F
:101D8000C017D107A1F789EF91E0DF91CF911F91A3
:101D90000F910C94B30DCF93DF93EC0182E20E947C
:101DA000B10DCE010E94B30D82E2DF91CF910C9470
:101DB000B10D82EF91E00C94B30DDC0180914D04E4
:101DC0008D3229F48FEF9FEFEEE4F4E004C081E060
:101DD00090E0EDE4F4E011961C921E926AE04081DE
:101DE0002D913C9111974423C1F0629FA001639F04
:101DF000500D112411965C934E93219130ED320FCA
:101E00003A30B8F4022E000C330B20533109240F62
:101E1000351F11963C932E93E2CF289FA001299F56
:101E2000500D389F500D11244D935C9381E090E04C
:101E3000089580E090E008950C94B10D0C94B30DDA
:101E40000C94BF0D0C94D80D0C94E10D0C946915F5
:101E50000C949015FF920F931F93CF93DF93EC0197
:101E6000062FF72E18820E94691510E08823D9F0FA
:101E70000E943D158823B9F00E944415803210F06D
:101E800089931F5FE02FFF2D482F50E021912223DF
:101E900039F0022E000C330B42175307B9F702C07A
:101EA0008D3051F71882812FDF91CF911F910F91C3
:101EB000FF9008956CEF71E08DE494E00E942A0F8A
:101EC000882349F0E82FF0E0E45BFB4F80818F32FC
:101ED00089F3803279F308950F931F93CF93DF93A3
:101EE00000D000D01F92CDB7DEB76CEF71E08DE46B
:101EF00094E00E942A0F6FEF71E08DE494E00E945D
:101F00006212892B09F0BBC16CEF71E08DE494E0A3
:101F10000E942A0F6AE773E08DE494E00E94621247
:101F2000892B09F081C26CEF71E08DE494E00E948E
:101F30002A0F64E072E08DE494E00E946212892B23
:101F400009F072C287E193E00E94B30D89EF91E03E
:101F50000E94B30D8BE092E00E94B30D89EF91E0F7
:101F60000E94B30D85E192E00E94B30D8BEF94E0E7
:101F70000E94CB0E8CE20E94B10D89EF91E00E948D
:101F8000B30D82E292E00E94B30D87E095E00E94DB
:101F9000CB0E8CE20E94B10D89EF91E00E94B30D4F
:101FA00086E392E00E94B30D83E195E00E94CB0EA0
:101FB0008CE20E94B10D89EF91E00E94B30D8BE499
:101FC00092E00E94B30D60911F05709120058091F1
:101FD0002105909122050E94700B8C01FC01128654
:101FE00082E20E94B10DC8010E94B30D82E20E94FC
:101FF000B10D8CE20E94B10D89EF91E00E94B30D0A
:1020000083E692E00E94B30D809123050E94BF0DEC
:1020100004E215E08AE30E94B10DF80181918F017D
:102020000E94BF0DF5E009321F07A1F787E792E094
:102030000E94B30D89EF91E00E94B30D8AE792E010
:102040000E94B30D89E295E00E94CB0E89EF91E0EA
:102050000E94B30D8AE393E00E94B30D89EF91E0F3
:102060000E94B30D8EE892E00E94B30D6091A0042F
:102070007091A104072E000C880B990B0E94E10DB2
:102080008CE20E94B10D89EF91E00E94B30D8CE9C2
:1020900092E00E94B30D6091A2047091A304072EF8
:1020A000000C880B990B0E94E10D8CE20E94B10D8F
:1020B00089EF91E00E94B30D8AEA92E00E94B30D8D
:1020C0006091A4047091A504072E000C880B990B55
:1020D0000E94E10D8CE20E94B10D89EF91E00E9417
:1020E000B30D88EB92E00E94B30D6091A60470914D
:1020F000A704072E000C880B990B0E94E10D8CE2BF
:102100000E94B10D89EF91E00E94B30D86EC92E040
:102110000E94B30D6091000170910101072E000C27
:10212000880B990B0E94E10D8CE20E94B10D89EFA2
:1021300091E00E94B30D87ED92E00E94B30D809173
:102140000001909101012091A0043091A104821717
:1021500093071CF082EE92E020C02091A2043091FF
:10216000A304821793071CF08AEE92E016C0209118
:10217000A6043091A704281739071CF482EF92E0D7
:102180000CC02091A4043091A504281739071CF431
:1021900089EF92E002C081E093E00E94B30D8CE2EF
:1021A0000E94B10D89EF91E00E94B30D89E093E0A8
:1021B0000E94B30D89EF91E00E94B30D10E00E94E0
:1021C0003E09181708F048C0812F90E0A0E0B0E069
:1021D0009E012B5F3F4FAE014F5F5F4FBC01CD01B2
:1021E0000E945709112339F08CE20E94B10D89EF4A
:1021F00091E00E94B30D83E193E00E94B30D89EF5B
:1022000091E00E94B30D89E193E00E94B30D82E258
:102210000E94B10D69817A818B819C810E94700B33
:102220000E94B30D82E20E94B10D8CE20E94B10DBA
:102230008CE293E00E94B30D6D8170E080E090E04D
:102240000E94E10D89EF91E00E94B30D88E393E0D5
:102250000E94B30D1F5FB3CF89EF91E00E94B30DD1
:102260008EE393E00E94B30D89EF91E00E94B30DDD
:102270008CE393E00E94B30D89EF91E017C162E413
:1022800073E08DE494E00E946212892B09F0D8C0BB
:102290006CEF71E08DE494E00E942A0F6AE773E02E
:1022A0008DE494E00E946212892B09F0BDC067E4BE
:1022B00073E08DE494E00E942A0F6BE473E08DE4F8
:1022C00094E00E946212892B89F563E573E08DE446
:1022D00094E00E942A0F67E573E08DE494E00E9489
:1022E0006212892B09F0A0C06CEF71E08DE494E0DC
:1022F0000E942A0F6EE573E08DE494E00E94621262
:10230000892B29F486E693E00E94B30D8FC06DE619
:1023100073E08DE494E00E946212892B09F084C07E
:1023200086E693E00E94B30D0E940B0664E773E01B
:102330008DE494E00E946212892B09F075C067E475
:1023400073E08DE494E00E942A0F6CE773E08DE463
:1023500094E00E946212892B09F066C064E873E081
:102360008DE494E00E942A0F67E873E08DE494E026
:102370000E946212892B91F46CEF71E08DE494E07D
:102380000E942A0FCE0101960E94DD0E892B09F4CE
:102390004BC089819A810E9462054FC061E973E058
:1023A0008DE494E00E946212892B89F46CEF71E055
:1023B0008DE494E00E942A0FCE0101960E94DD0E6A
:1023C000892B91F189819A810E94870536C06BE93A
:1023D00073E08DE494E00E946212892B89F46CEF23
:1023E00071E08DE494E00E942A0FCE0101960E94D4
:1023F000DD0E892BC9F089819A810E94D9051DC003
:1024000065EA73E08DE494E00E946212892B61F426
:102410006CEF71E08DE494E00E942A0FCE010196EA
:102420000E94DD0E892B29F40E94D90E0E945A0FBA
:102430003FC089819A810E94B005892BA9F1F4CF10
:102440006FEA73E08DE494E00E946212892B61F7D9
:102450006CEF71E08DE494E00E942A0F6AE773E06C
:102460008DE494E00E946212892BF1F66CEF71E02A
:102470008DE494E00E942A0F64E773E08DE494E019
:102480000E946212892B81F66CEF71E08DE494E07A
:102490000E942A0F67EB73E08DE494E00E946212C1
:1024A000892B11F60E94210986E693E00E94B30D64
:1024B0000F900F900F900F900F90DF91CF911F9181
:1024C0000F910895DC01FB019D91992341F08191C9
:1024D000891784F09817C4F78FEF9FEF089581E074
:1024E00090E02081211102C080E090E091958195DB
:1024F0009109089581E090E00895DC0190E020E0EA
:1025000061507109422F50E0FD01E40FF51F46179D
:10251000570720F48081980F2F5FF4CF9195908317
:102520000895611571058105910541F060932C01B5
:1025300070932D0180932E0190932F012115310569
:102540004105510541F02093280130932901409322
:102550002A0150932B0108954F925F926F927F92C0
:102560008F929F92AF92BF92CF92DF92EF92FF92A3
:10257000CF93DF9300D000D0CDB7DEB72B013C0165
:1025800029833A834B835C83C0902801D090290132
:10259000E0902A01F0902B01A701960144275527CE
:1025A000A9E6B0E90E947B166701EE24FF244B01E7
:1025B0005C018C0C9D1CAE1CBF1C8092280190926B
:1025C0002901A0922A01B0922B01C0902C01D09039
:1025D0002D01E0902E01F0902F01A70196014427D4
:1025E0005527A0E5B6E40E947B166701EE24FF2480
:1025F000C60ED71EE81EF91EC0922C01D0922D01E6
:10260000E0922E01F0922F01D40199278827BC0176
:10261000CD016C0D7D1D8E1D9F1D29813A814B8141
:102620005C8124193509460957090E942516CB01FA
:10263000840D951D0F900F900F900F90DF91CF910B
:10264000FF90EF90DF90CF90BF90AF909F908F90D2
:102650007F906F905F904F900895CF93DB01FC01C6
:1026600020812D3221F401966FEF7FEF02C061E0EF
:1026700070E011961C921E92FC01CAE020818D919F
:102680009C9111972223C1F0C89FA001C99F500DB2
:10269000112411965C934E93219180ED820F8A3024
:1026A000B8F4022E000C330B20533109240F351FD0
:1026B00011963C932E93E2CF869F9001879F300D19
:1026C000969F300D11242D933C9381E090E002C041
:1026D00080E090E0CF9108958091F704833561F414
:1026E0008091F804853441F481E090E02091F90470
:1026F000223521F080E002C080E090E0E7EFF4E0D6
:1027000020E03191230F35E0EF32F307D1F7222398
:1027100011F080E090E00895CF93DF93CDB7DEB75E
:10272000E7970FB6F894DEBF0FBECDBF87E3EDE9A4
:10273000F1E0DE01119601900D928A95E1F767E3D1
:1027400070E0CE0101960E947D1247E3BE016F5FEB
:102750007F4F80E090E00E943007E7960FB6F89434
:10276000DEBF0FBECDBFDF91CF9108950E947907E4
:10277000892BE1F747E367EF74E080E090E00E9487
:1027800064070E946C13892B49F40E948C1347E361
:1027900067EF74E080E090E00C9464070895109275
:1027A000C00087E690E09093C5008093C400E1EC00
:1027B000F0E088E1808386E08093C2008081806AB7
:1027C000808308951F920F920FB60F9211242F93BA
:1027D0003F938F939F93EF93FF938091930488236C
:1027E00009F4F0C08091C60090919204992309F4F5
:1027F000E3C090EE980F9F3518F08D3009F059C066
:1028000020918F049091900430E0291B31092150D0
:1028100031092F733327232B61F0E0919004F0E00E
:10282000E25DFA4F8083909190049F5F9F73909335
:10283000900420918D0490918E0430E0291B310981
:10284000215031092F733327232B89F0E0918E0417
:10285000F0E0E259FA4F808390918E049F5F9F735E
:1028600090938E049091C10090629093C1008D303E
:1028700009F0C5C080918D0420918E0490E0821BE8
:10288000910901978F739927892B69F0E0918E0444
:10289000F0E0E259FA4F8AE0808380918E048F5FE6
:1028A0008F7380938E04809191048F5F8093910445
:1028B000A6C0883011F08F37C1F580919004209127
:1028C0008F0490E0821B91098F739927892B09F45B
:1028D00096C0E0919004F0E0E25DFA4F8081809133
:1028E000900481508F738093900480918D04209187
:1028F0008E0490E0821B910901978F739927892B91
:1029000009F47DC0E0918E04F0E0E259FA4F8FE7C0
:10291000808380918E048F5F8F7380938E0480916B
:10292000C10080628093C1006AC0843009F067C032
:102930008091900420918F0490E0821B91098F7305
:102940009927892B31F1E0919004F0E0E25DFA4F94
:1029500080818D30F1F080918F042091900490E07F
:10296000821B910901978F739927892B91F0E09130
:102970009004F0E0E25DFA4F8DE080838091900456
:102980008F5F8F7380939004809191048F5F809309
:10299000910480918F042091900490E0821B910912
:1029A00001978F739927892B51F1E0919004F0E002
:1029B000E25DFA4F84E019C0833009F581E080932D
:1029C00092041DC080918F042091900490E0821B9E
:1029D000910901978F739927892B79F0E0919004E1
:1029E000F0E08091C600E25DFA4F80838091900410
:1029F0008F5F8F738093900402C08091C600FF9117
:102A0000EF919F918F913F912F910F900FBE0F905B
:102A10001F9018951F920F920FB60F9211242F93AB
:102A20008F939F93EF93FF9380918E0420918D0459
:102A300090E0821B91098F739927892B79F0E0919F
:102A40008D04F0E0E259FA4F80818093C6008091B6
:102A50008D048F5F8F7380938D0405C08091C100BA
:102A60008F7D8093C100FF91EF919F918F912F9166
:102A70000F900FBE0F901F90189580919004909129
:102A80008F04891B8F7308958091900420918F0487
:102A900090E0821B91098F739927892BC1F0E091F7
:102AA0008F04F0E0E25DFA4F808190918F049F5F88
:102AB0009F7390938F0490919304992349F08D30E4
:102AC00039F490919104915090939104089580E08D
:102AD000089581E0809393048091900420918F0465
:102AE00090E0821B91098F739927892BB1F0E091B7
:102AF0008F04F0E0E25DFA4F8081843071F410922F
:102B00009204E0918F04F0E0E25DFA4F80818091C1
:102B10008F048F5F8F7380938F0480919204089548
:102B20008091910408950FB607FE0EC020918D0488
:102B300090918E0430E0291B3109215031092F7307
:102B40003327232B99F30DC020918D0490918E048F
:102B500030E0291B3109215031092F733327232BF2
:102B600061F0E0918E04F0E0E259FA4F80838091A9
:102B70008E048F5F8F7380938E048091C10080627A
:102B80008093C10008951F93CF93DF93EC0180E001
:102B900011E0180FFE01E80FF11D8081882321F05C
:102BA0000E949315812FF4CFDF91CF911F9108954B
:102BB0001F93CF93DF93EC0180E011E0180FFE012B
:102BC000E80FF11D8491882321F00E949315812F35
:102BD000F4CFDF91CF911F910895DB018F939F93E5
:102BE0000E947B16BF91AF91A29F800D911DA39F64
:102BF000900DB29F900D11240895AA1BBB1B51E1AB
:102C000007C0AA1FBB1FA617B70710F0A61BB70B5C
:102C1000881F991F5A95A9F780959095BC01CD0101
:102C2000089597FB072E16F4009407D077FD09D07E
:102C30000E94FD1507FC05D03EF4909581959F4FAD
:102C40000895709561957F4F0895A1E21A2EAA1BF1
:102C5000BB1BFD010DC0AA1FBB1FEE1FFF1FA2174C
:102C6000B307E407F50720F0A21BB30BE40BF50B49
:102C7000661F771F881F991F1A9469F760957095D2
:102C8000809590959B01AC01BD01CF010895052E63
:102C900097FB1EF400940E945E1657FD07D00E9419
:102CA000251607FC03D04EF40C945E165095409503
:102CB000309521953F4F4F4F5F4F089590958095E8
:102CC000709561957F4F8F4F9F4F0895EE0FFF1FB7
:102CD0000590F491E02D0994A29FB001B39FC0012B
:102CE000A39F700D811D1124911DB29F700D811D38
:102CF0001124911D08950E946C16A59F900DB49FFC
:102D0000900DA49F800D911D11240895FC01019048
:102D10000020E9F7809590958E0F9F1F0895F894F5
:022D2000FFCFE3
:102D2200030B443100802500002D00040B443000C9
:102D3200802500002D0002060024F400010C6174BD
:082D42006D6567613332380052
:102D4A00580041535500FF03FE030000010000C074
:102D5A00A801640030302F30302F3030303020302E
:102D6A00303A30303A303000E5559A15B53B121FEB
:102D7A005345523438362050726F6A656374203373
:102D8A00202D20496E746567726174696F6E0D0A31
:102D9A00004D616E6973685F4D616E69000D0A00CE
:102DAA00436F6E6E656374696F6E204573746162FA
:102DBA006C69736865640D0A00436F6E6E656374AF
:102DCA00696F6E204C6F73740D0A002D002E00205F
:102DDA00001F1C1F1E1F1E1F1F1E1F1E1F53455292
:102DEA000053616E647900000000000000446F75B2
:102DFA00676C617300000000005F554E41535349F0
:102E0A00474E45440000000000444F5553414E557B
:102E1A00534100000D0A414C41524D3A20003030D6
:102E2A002F30302F303030302030303A30303A3096
:102E3A003000494E56414C49440D0A002F200047A4
:102E4A004554200064657669636500202022767007
:102E5A0064223A7B0020202020226D6F64656C2258
:102E6A003A0020202020226D616E756661637475B8
:102E7A00726572223A0020202020227365726961ED
:102E8A006C5F6E756D626572223A002020202022E6
:102E9A006D616E75666163747572655F6461746590
:102EAA00223A0020202020226D61635F61646472EF
:102EBA00657373223A2200222C00202020202263EC
:102ECA006F756E7472795F636F6465223A002020B1
:102EDA002274637269745F6869223A00202022743E
:102EEA007761726E5F6869223A00202022746372E9
:102EFA0069745F6C6F223A00202022747761726EC7
:102F0A005F6C6F223A0020202274656D70657261D1
:102F1A0074757265223A00202022737461746522E6
:102F2A003A00435249545F4849005741524E5F485C
:102F3A0049004E4F524D414C005741524E5F4C4F43
:102F4A0000435249545F4C4F002020226C6F672285
:102F5A003A5B00202020207B0020202020202022F5
:102F6A0074696D657374616D70223A0022657665C5
:102F7A006E746E756D223A00202020207D0020207C
:102F8A005D0050555420002F203F00646576696328
:102F9A00653F002F203D0072657365743D0022660F
:102FAA00616C736522004F4B41590D0A00227472FD
:102FBA00756522006465766963652F00636F6E66C6
:102FCA0069673F003D200074637269745F68693DF8
:102FDA0000747761726E5F68693D00746372697428
:102FEA005F6C6F3D00747761726E5F6C6F3D004479
:0C2FFA00454C45544520006C6F670000FA
:00000001FF
