:100000000C943D000C945A000C945A000C945A0025
:100010000C945A000C945A000C941F060C945A002D
:100020000C945A000C945A000C945A000C94660DCF
:100030000C945A000C945A000C9458010C945A00D9
:100040000C945A000C945A000C94E8130C9410155C
:100050000C945A000C945A000C94F0060C945A001C
:100060000C945A000C945A008B0355041F04C103CE
:10007000DD04A004F003B5048B0411241FBECFEFF0
:10008000D8E0DEBFCDBF13E0A0E0B1E0E6E5FDE2E1
:1000900002C005900D92A23CB107D9F725E0A2EC71
:1000A000B3E001C01D92A43BB207E1F70E94B70282
:1000B0000C9495160C940000CF93DF9300D0CDB72D
:1000C000DEB78091CA03882389F58AEF90E09A838E
:1000D000898387E490E029812150FC01208384E416
:1000E00090E024E430E0F90120812260FC012083CB
:1000F00085E490E025E430E0F90120812360FC01F3
:1001000020838FE590E02FE530E0F9012081206821
:10011000FC0120838EE690E02EE630E0F90120819C
:100120002260FC01208381E08093CA0300000F90CD
:100130000F90DF91CF910895CF93DF9300D000D03F
:1001400000D0CDB7DEB79E838D838FE590E0FC01B4
:100150008081082E000C990B807899279A838983D7
:100160008FE590E02FE530E0F90120812F77FC0149
:1001700020838D819E81880F991F8E539C4FFC0197
:10018000808191819C838B8389819A81892B49F01D
:100190008FE590E02FE530E0F90120812068FC0137
:1001A00020838B819C8126960FB6F894DEBF0FBE0C
:1001B000CDBFDF91CF910895CF93DF9300D000D0D2
:1001C00000D0CDB7DEB79C838B837E836D83809117
:1001D000CA03882311F40E945C008FE590E0FC01C3
:1001E0008081082E000C990B807899279A83898347
:1001F0008FE590E02FE530E0F90120812F77FC01B9
:1002000020838B819C81880F991F8A539C4F2D815D
:100210003E81FC01318320838B819C81880F991F53
:100220008E539C4FFC011182108289819A81892B07
:1002300049F08FE590E02FE530E0F901208120685A
:10024000FC012083000026960FB6F894DEBF0FBE97
:10025000CDBFDF91CF910895CF93DF9300D000D031
:10026000CDB7DEB79C838B831A8219828B819C81E8
:10027000880F991F8E539C4FFC01208131818B8107
:100280009C81880F991F8A539C4FFC01808191812A
:100290002817390721F481E090E09A8389838981C6
:1002A0009A810F900F900F900F90DF91CF9108954A
:1002B0001F920F9200905F000F9211242F933F9393
:1002C0008F939F93EF93FF93CF93DF9300D0CDB79E
:1002D000DEB71A8219822FC089819A81880F991FEF
:1002E0008E539C4FFC012081318189819A81880F36
:1002F000991F8A539C4FFC018081918128173907EF
:10030000A8F489819A81880F991F8E539C4FFC0114
:10031000808191819C012F5F3F4F89819A81880F55
:10032000991F8E539C4FFC013183208389819A81D0
:1003300001969A83898389819A81029768F20000E5
:100340000F900F90DF91CF91FF91EF919F918F913F
:100350003F912F910F9000925F000F901F90189582
:10036000CF93DF93CDB7DEB784E290E024E230E0B4
:10037000F90120812260FC01208385E290E025E2E2
:1003800030E0F90120812D7FFC0120830000DF9106
:10039000CF910895CF93DF93CDB7DEB785E290E09C
:1003A00025E230E0F90120812260FC012083000079
:1003B000DF91CF910895CF93DF93CDB7DEB785E27C
:1003C00090E025E230E0F90120812D7FFC012083BF
:1003D0000000DF91CF910895CF93DF93CDB7DEB7C3
:1003E00085E290E0FC018081882F90E0827099275F
:1003F00021E0892B09F420E0822F90E0DF91CF915A
:100400000895CF93DF9300D0CDB7DEB79A83898369
:1004100089819A8190939D0480939C0410929F04FB
:1004200010929E0410929B0410929A0460E070E077
:1004300080E090E00E94DC000E94DB0100000F9051
:100440000F90DF91CF910895CF93DF93CDB7DEB7B3
:1004500080919A0490919B04009721F0019709F4F0
:1004600051C081C080E090E00E942C01892B09F4EA
:1004700077C020919C0430919D0480919E049091BE
:100480009F04820F931FFC018081082E000C990BA2
:100490008D32910531F08E32910591F08097F9F00F
:1004A00027C00E94CA016EEE72E080E090E00E94D8
:1004B000DC0081E090E090939B0480939A0421C03B
:1004C0000E94CA016AEF70E080E090E00E94DC00C8
:1004D00081E090E090939B0480939A0412C00E9464
:1004E000DB0168EE73E080E090E00E94DC0009C070
:1004F0000E94DB0160E070E080E090E00E94DC00A0
:1005000000002EC080E090E00E942C01892B51F168
:100510000E94DB0164E670E080E090E00E94DC0075
:1005200080919E0490919F04019690939F048093E4
:100530009E0480919C0490919D040E948C169C01C5
:1005400080919E0490919F048217930720F010924F
:100550009F0410929E0410929B0410929A0402C071
:10056000000001C000000000DF91CF9108950F93BB
:100570001F93CF93DF931F92CDB7DEB70E94A606DD
:100580000E94BC130E94A1090E94A9070E94620652
:100590000E94B30D0E94B0010E942F0D0E94F90528
:1005A0000E944703198280E391E00E94B90D81E522
:1005B00091E00E94B90D83E691E00E94B90D80E0C0
:1005C0000E94D6080E94410D68E873E181E090E046
:1005D0000E94DC000E9408060E94240281E090E054
:1005E0000E942C01892B31F10E94470D909301014B
:1005F00080930001E091AC04F091AD042091AA0435
:100600003091AB044091A8045091A9046091A604D4
:100610007091A70480910001909101018F010E94C7
:100620005F030E94410D68EE73E081E090E00E945C
:10063000DC00D0CF8981882359F40E942C0F8823B5
:1006400049F286E691E00E94B90D81E08983C2CF2C
:100650000E942E0F882369F00E94720F0E942C0FB7
:10066000882309F0B7CF8FE791E00E94240F198209
:10067000B1CF0E947F07892B11F40E946E080E945F
:100680007F07892B09F0A6CF0E94C106A3CFCF9385
:10069000DF93CDB7DEB71092A1041092A004000042
:1006A000DF91CF910895CF93DF93CDB7DEB710924E
:1006B000A1041092A0040000DF91CF9108950F9340
:1006C0001F93CF93DF93CDB7DEB72A970FB6F89479
:1006D000DEBF0FBECDBF9A8389837C836B835E832D
:1006E0004D8338872F831A8709878091A0049091C2
:1006F000A104CC01A0E0B0E040E050E028E030E010
:10070000841B950B2817390708F48FC18C5C9F4F09
:10071000FC010C946C1629813A818D819E812817E9
:1007200039079CF086E090E00E94630686E00E9414
:10073000D60881E991E00E9401020E94240283E030
:1007400090E09093A1048093A00429813A81898547
:100750009A85821793070CF457C188E090E00E94B5
:10076000630688E00E94D60881E991E00E940102B8
:100770000E94240286E090E09093A1048093A0045C
:1007800043C129813A818B819C81821793079CF414
:1007900085E090E00E94630685E00E94D60883E928
:1007A00091E00E9401020E94240285E090E0909373
:1007B000A1048093A00429813A818D819E8128170C
:1007C00039070CF023C185E991E00E9401020E94E3
:1007D000240282E090E09093A1048093A00416C1CB
:1007E00029813A818F819885821793079CF087E051
:1007F00090E00E94630687E00E94D60883E991E0BA
:100800000E9401020E94240288E090E09093A104DB
:100810008093A00429813A8189859A85821793075C
:100820000CF0F6C085E991E00E9401020E942402CA
:1008300081E090E09093A1048093A004E9C0298115
:100840003A818D819E81281739079CF086E090E0DF
:100850000E94630686E00E94D60881E991E00E942A
:1008600001020E94240283E090E09093A10480930F
:10087000A00429813A8189859A85821793070CF40F
:10088000C9C088E090E00E94630688E00E94D60814
:1008900081E991E00E9401020E94240286E090E03A
:1008A0009093A1048093A004B5C029813A818D81E1
:1008B0009E81281739079CF086E090E00E9463062D
:1008C00086E00E94D60881E991E00E9401020E9420
:1008D000240283E090E09093A1048093A0042981F6
:1008E0003A8189859A85821793070CF495C088E030
:1008F00090E00E94630688E00E94D60881E991E0BA
:100900000E9401020E94240286E090E09093A104DC
:100910008093A00481C029813A818F8198858217B4
:1009200093070CF07BC081E991E00E9401020E94D4
:10093000240287E090E09093A1048093A0046EC00D
:1009400029813A818B819C81281739070CF068C076
:1009500081E991E00E9401020E94240284E090E07B
:100960009093A1048093A0045BC029813A818F8178
:1009700098852817390764F483E991E00E94010201
:100980000E94240288E090E09093A1048093A00448
:1009900029813A8189859A85821793070CF042C094
:1009A00085E991E00E9401020E94240281E090E02A
:1009B0009093A1048093A00435C029813A818D8150
:1009C0009E812817390764F485E991E00E940102AD
:1009D0000E94240282E090E09093A1048093A004FE
:1009E00029813A818B819C8128173907ECF083E9B2
:1009F00091E00E9401020E94240285E090E0909321
:100A0000A1048093A00410C000000FC000000DC01E
:100A100000000BC0000009C0000007C0000005C0B6
:100A2000000003C0000001C0000000002A960FB6BD
:100A3000F894DEBF0FBECDBFDF91CF911F910F9114
:100A40000895CF93DF93CDB7DEB727970FB6F8940D
:100A5000DEBF0FBECDBF9D838C837F836E831B82E1
:100A60001A821EC08A819B812C813D81820F931F37
:100A7000FC0180819981890F89838FE590E0FC01D9
:100A80008081082E000C990B81709927892B19F011
:100A900089818F5F89838A819B8101969B838A8369
:100AA0002A813B818E819F8128173907D8F289815D
:100AB000809527960FB6F894DEBF0FBECDBFDF91AD
:100AC000CF910895CF93DF9300D0CDB7DEB79A834F
:100AD00089832091A8043091A90489819A812817DB
:100AE000390774F489819A81811594404CF4898185
:100AF0009A819093A7048093A60480E090E002C0BE
:100B000081E090E00F900F90DF91CF910895CF9307
:100B1000DF9300D0CDB7DEB79A8389832091AC04F0
:100B20003091AD0489819A812817390794F4209176
:100B3000A6043091A70489819A81821793074CF407
:100B400089819A819093A9048093A80480E090E021
:100B500002C081E090E00F900F90DF91CF91089557
:100B6000CF93DF9300D0CDB7DEB79A8389832091EE
:100B7000AA043091AB0489819A812817390794F42B
:100B80002091A8043091A90489819A818217930742
:100B90004CF489819A819093AD048093AC0480E0F9
:100BA00090E002C081E090E00F900F90DF91CF9134
:100BB0000895CF93DF9300D0CDB7DEB79A838983B2
:100BC0002091AC043091AD0489819A8182179307FA
:100BD0004CF489819A819093AB048093AA0480E0BD
:100BE00090E002C081E090E00F900F90DF91CF91F4
:100BF000089585B7877F85BFE0E6F0E08081876054
:100C000080838081886480838FB780688FBF0895D8
:100C1000CF93DF93CDB7DEB7A8950000DF91CF91DA
:100C200008958FB78F778FBF809160008061809328
:100C30006000809160008F7B80936000FFCF1F92E7
:100C40000F9200905F000F9211242F933F934F93C8
:100C50005F936F937F938F939F93AF93BF93EF9324
:100C6000FF93CF93DF9300D0CDB7DEB70E94CA01C8
:100C700082E00E94D6081A82198207C00E94A40846
:100C800089819A8101969A83898389819A81409783
:100C9000ACF30E94D90600000F900F90DF91CF9126
:100CA000FF91EF91BF91AF919F918F917F916F9144
:100CB0005F914F913F912F910F9000925F000F90A5
:100CC0001F9018950895CF93DF93EC018AED91E082
:100CD0000E94B90DBE0180E090E00E94E70D8FEF09
:100CE00091E0DF91CF910C94B90D81E08093CB031B
:100CF00008958091A204813461F48091A304833526
:100D000041F481E090E02091A404253521F080E0B9
:100D100002C080E090E0E2EAF4E020E03191230FAD
:100D200034E0E53BF307D1F7222311F080E090E0B7
:100D3000089562E170E082E091E00E94831242E156
:100D400062E071E080E490E00C9436070E947F0737
:100D5000892BE1F742E162EA74E080E490E00E94CE
:100D60006A070E947906892B49F40E94990642E19C
:100D700062EA74E080E490E00E946A071092CB037C
:100D800008950E947F07892B99F48091CB038823D3
:100D900079F062E170E082EA94E00E94831242E11D
:100DA00062EA74E080E490E00E9436071092CB0380
:100DB00008958091CB03882379F062E170E082EAA4
:100DC00094E00E94831242E162EA74E080E490E0E1
:100DD0000E9453071092CB030895FA9AF99A089546
:100DE0001F920F920FB60F9211242F933F934F93A0
:100DF0005F936F937F938F939F93AF93BF93EF9383
:100E0000FF93E091F8048091B704E81720F0FB9875
:100E10001092B4041AC08091B5049091B60492BDAA
:100E200081BD81E08E0F8093F804F0E0E854FB4F21
:100E3000808180BD8091B5049091B6040196909315
:100E4000B6048093B5040E94ED06FF91EF91BF9127
:100E5000AF919F918F917F916F915F914F913F9152
:100E60002F910F900FBE0F901F9018952091B404F2
:100E70002111FCCF9093B6048093B50481E0809358
:100E8000B4041092F8044093B704962FA8EBB4E092
:100E9000FB018E2F891B841718F481918D93F9CF54
:100EA0007894FB9A0895FB01861B970B50E0DC01B8
:100EB000AE0FBF1F9F01261B370B2417350748F4C1
:100EC000F999FECFB2BDA1BD219120BDFA9AF99A40
:100ED000EECF08952091B4042111FCCFFB01861BB5
:100EE000970B2E2F261B241748F49C012E0F3F1F13
:100EF00032BD21BDF89A20B52193F3CF089580919A
:100F0000B40490E008958031910504F527E0289F0E
:100F1000A001299F500D1124FA01E153FC4F80815B
:100F20008132A0F480E090E020E0FA01E80FF91FA0
:100F3000E153FC4F3081230F019687309105A9F7CB
:100F400081E090E0222321F080E0089580E090E0AD
:100F500008956F927F928F929F92AF92BF92CF929D
:100F6000DF92EF92FF920F931F93CF93DF930E9434
:100F70007F07892BE1F70FE314E0C0E8D0E0BE0162
:100F8000615B7C4F47E0CE010E946A07F801119235
:100F90008F012796C03FD10591F74FECE42E43E037
:100FA000F42E8701C0E0D0E0D12CB12C77247A94C4
:100FB000CE010E948307892B41F0F80180818715BB
:100FC00020F4BC2E782EDD24D3942196095F1F4F88
:100FD000C031D10569F7DD2009F46AC0B092CE03B3
:100FE0007092CD03CB2DD0E08E010F5F1F4F872C69
:100FF0002FE0A22E37E0932E6801FFE0CF22DD2400
:10100000C6010E948307892B61F4B092CC038E0144
:1010100001501109609780E1A82EB12C97E0692E4C
:101020003AC09C9CF0019D9CF00D1124E153FC4FB3
:101030004081242F30E0882D90E001968F71992710
:101040002817390711F7C092CE034093CD03AA9415
:101050000F5F1F4FAA20C9F2842ECECFF701208147
:1010600030E0872D90E04F968F7199272817390728
:1010700031F5C092CC03689CF001699CF00D1124FD
:10108000E153FC4F708001501109F7E0EF0EF11CA5
:101090000C171D07A1F0C801B5010E9417166C01BD
:1010A0004C019924C4010E948307892BB9F607C01B
:1010B0008FE08093CE031092CD031092CC03DF918A
:1010C000CF911F910F91FF90EF90DF90CF90BF9045
:1010D000AF909F908F907F906F900895EF92FF92C6
:1010E0001F93CF93DF930E947F07892B39F5EFE39E
:1010F000F4E0C0E0D0E081918823E1F017E01C9F8C
:10110000C0011D9F900D11249C0121533C4F79017A
:1011100067E070E0C9010E948312C19FC0011124E1
:1011200047E0B70180589F4F0E943607C15CDB4FF4
:10113000188204C02196C031D105E9F6DF91CF9124
:101140001F91FF90EF900895EF92FF921F93CF931E
:10115000DF93EFE3F4E0C0E0D0E081918823E1F099
:1011600017E01C9FC0011D9F900D11249C0121536D
:101170003C4F790167E070E0C9010E948312C19F72
:10118000C001112447E0B70180589F4F0E945307C8
:10119000C15CDB4F188204C02196C031D105E9F64D
:1011A000DF91CF911F91FF90EF900895EF92FF9202
:1011B0000F931F93CF93DF93E82EC091CE03D0E01F
:1011C0002196CF70DD278091CC0390E00E948307A9
:1011D000F82E8091CD038F5F813218F48093CD0378
:1011E00002C01092CD0387E08C9F80018D9F100D6F
:1011F000112401531C4F8091CD03F80180830E947C
:10120000A309F8016183728383839483E582C09389
:10121000CE0367E070E0C8010E948312C15CDB4F1F
:1012200081E088838091CE039091CC03891308C01C
:10123000FF2031F090E001968F7099278093CC03C6
:10124000DF91CF911F910F91FF90EF900895EFECF8
:10125000F3E0AFE3B4E08FEF4FEF5FEFBA0191E05F
:101260008083858341835283638374839D93379600
:1012700024E0EF33F207A1F78FE08093CE031092C2
:10128000CC031092CD0308950F931F93CF93DF9358
:101290000091CC03C02F10E0D0E0CE010E94830764
:1012A000892B29F02196CF701F5F0C13F5CF812F6A
:1012B000DF91CF911F910F910895AF92BF92CF927E
:1012C000DF92EF92FF920F931F93CF93DF936B0107
:1012D0007C018A0159010E94440990E0A0E0B0E03D
:1012E000C816D906EA06FB06F8F48091CC0390E014
:1012F000C80ED91E8FE0C822DD2487E08C9DF00146
:101300008D9DF00D1124E153FC4F81819281A381C9
:10131000B481E80188839983AA83BB838581F50121
:10132000808381E090E002C080E090E0DF91CF9187
:101330001F910F91FF90EF90DF90CF90BF90AF90F3
:1013400008950C948B0D0C949B0D6093F90470938D
:10135000FA048093FB049093FC040C94A70D9C0169
:1013600060E971E00E940316892B79F0C90183704E
:101370009927892B61F4C90164E670E00E94031685
:101380009C0181E0232B21F402C081E0089580E0DC
:1013900008952F923F924F925F926F927F928F9219
:1013A0009F92AF92BF92CF92DF92EF92FF920F93F4
:1013B0001F93CF93DF93CDB7DEB767970FB6F8943F
:1013C000DEBF0FBECDBF2CE0E7E9F1E0AE014F5F1D
:1013D0005F4F1A01DA0101900D922A95E1F7DC01C5
:1013E0002C91220F2056322F330F330F230F1196DB
:1013F0003C9111973153230F2D8713962C911397FE
:10140000022E000C330B205331096AE0629FA001C9
:10141000639F500D11241496CC900C2C000CDD0809
:10142000B0E3CB1AD108C40ED51E860101501109B4
:10143000FC012681022E000C330B20533109E8EE0B
:10144000F3E02E9FA0012F9F500D3E9F500D1124C1
:10145000DC0117962C911797022E000C330B2053AA
:10146000310974E6729F7001739FF00C1124E40E31
:10147000F51E18964C911897042E000C550B4053EE
:101480005109649F9001659F300D1124E20EF31EF7
:1014900019962C911997F701E20FF11D27FDFA9586
:1014A000AF0158507A011B962C911B97220F2056A2
:1014B000322F330F330F230F1C963C911C97305360
:1014C000230F298B1E962C911E97220F2056322F08
:1014D000330F330F230F1F963C911F973053230F69
:1014E0002A8B51962C915197220F2056322F330F71
:1014F000330F230F52968C918053280F2B8BCA01E8
:101500000E94AF09882321F05D85523008F08601E2
:10151000C70160E971E00E940316FC01DB0120E8CD
:1015200039E540E650EF0E9481162B013C01CF01C6
:1015300064E670E00E940316FC01DB0120E032EC5F
:1015400047E15CEB0E9481164B015C01DF01B6951F
:10155000A795B695A79520E83FE146E857E00E9499
:1015600081166B017C01DF01A370BB2720E833E308
:1015700041EE51E00E9481166C8B7D8B8E8B9F8B90
:10158000F1018E2F82199D85891720F48191080F12
:10159000111DF7CFA9892A2F30E0A0E1BEE00E94FB
:1015A00072166D877E878F87988BBA892B2F30E0D4
:1015B000ACE3B0E00E9472162D853E854F855889B8
:1015C000260F371F481F591FDA01C9013B89830FB6
:1015D000911DA11DB11D480E591E6A1E7B1E840C53
:1015E000951CA61CB71CC80CD91CEA1CFB1C8C89BA
:1015F0009D89AE89BF89C80ED91EEA1EFB1ED8017F
:1016000020E831E541E050E00E948116DC01CB0189
:101610008C0D9D1DAE1DBF1D8093F9049093FA049F
:10162000A093FB04B093FC0467960FB6F894DEBF5A
:101630000FBECDBFDF91CF911F910F91FF90EF9023
:10164000DF90CF90BF90AF909F908F907F906F90E2
:101650005F904F903F902F900C94A70DEF92FF92C8
:101660000F931F93CF93DF93CDB7DEB768970FB675
:10167000F894DEBF0FBECDBF7B012CE0E7E9F1E0BF
:10168000DE011D9601900D922A95E1F78E010F5F04
:101690001F4F2CE0F80111922A95E9F70E94AF093B
:1016A0008A83DE011D9680E0F701408151819D9182
:1016B000F80121918F0130E0290F311D42175307A6
:1016C00040F0421B530BF701518340838F5F8C30F6
:1016D00059F768960FB6F894DEBF0FBECDBFDF9105
:1016E000CF911F910F91FF90EF9008954F925F92CD
:1016F0006F927F928F929F92AF92BF92CF92DF9222
:10170000EF92FF92CF93DF9300D0CDB7DEB72B01DE
:101710003C0181E090E0A0E0B0E020E8421629E53D
:10172000520620E6620620EF720618F480E090E090
:10173000DC0120E931E0829F5001839FB00C929F31
:10174000B00C112480E3A81A88EFB80AC12CD12C60
:101750007601C39420E8421629E5520620E6620687
:1017600020EF720618F4C12CD12C7601A701960146
:1017700060E879E580E690EF0E94F315730162015D
:10178000C61AD70AE80AF90A81E090E0A0E0B0E0C2
:10179000C11422ECD20627E1E2062CEBF20618F483
:1017A00080E090E0DC0144E6489F9001499F300DC5
:1017B0001124A20EB31E21E030E040E050E0C1143D
:1017C00082ECD80687E1E8068CEBF80618F420E0F6
:1017D00030E0A90160E072EC87E19CEB0E94F31518
:1017E000A7019601261B370B480B590BCA01B901FB
:1017F00020E83FE146E857E00E942B16220F331FF6
:10180000220F331FA20EB31E20E833E341EE51E056
:101810000E942B167501E20EF31E20E831E541E02F
:1018200050E00E942B164B015C013A832983BE01D4
:101830006F5F7F4FC7010E942E0BD82EC501B401E8
:1018400020E13EE040E050E00E942B1629013A01E1
:101850004B015C0164EE71E084E191E00E94BA0CFE
:101860006D2D70E06F5F7F4F42E084E191E00E9458
:10187000CD0C69817A816F5F7F4F42E087E191E013
:101880000E94CD0C44E0B7018AE191E00E94CD0CAA
:1018900042E0B2018FE191E00E94CD0CC501B4019C
:1018A0002CE330E040E050E00E942B1649015A0141
:1018B0006B017C0142E0B40182E291E00E94CD0C18
:1018C00042E0B60185E291E00E94CD0C84E191E016
:1018D0000F900F90DF91CF91FF90EF90DF90CF901E
:1018E000BF90AF909F908F907F906F905F904F9040
:1018F00008950F931F930E949B0D0091F90410917E
:10190000FA042091FB043091FC04600F711F821FC8
:10191000931F1F910F910C94760BFB01480F591FD9
:101920008417950729F02191DC012D93CD01F8CF83
:101930000895480F591F8417950721F0FC01619302
:10194000CF01F9CF0895FB01480F591F8417950760
:1019500059F0DC013D91CD012191321740F0231760
:10196000A8F781E090E0089580E090E008958FEF7F
:101970009FEF0895FC01DB018D91BD01882311F0DB
:101980008193F9CF10820895FC019F01281B390B28
:1019900041914111FACFC90108959F92AF92BF9230
:1019A000CF92DF92EF92FF920F931F93CF93DF932B
:1019B00000D000D01F92CDB7DEB7FC016B019E01B5
:1019C0002F5F3F4F8E010A5F1F4FEE24E394F12CEF
:1019D0009AE0992E9E9C50019F9CB00C1124C60148
:1019E000B5010E940316B7010E940316D9016D9339
:1019F0009D01C61AD10867FDD3947501A017B107E0
:101A000049F760E070E084E090E050E0D8012E916A
:101A10008D01211105C06115710511F4009741F484
:101A2000841795072CF4205D219361E070E004C0D9
:101A3000841795070CF43196019740F70F900F909B
:101A40000F900F900F90DF91CF911F910F91FF900A
:101A5000EF90DF90CF90BF90AF909F90089588EC6B
:101A600080937C0086E880937A00089580917A00C4
:101A7000829586958695837091E08927817090E0A4
:101A80000895EAE7F0E08081806480830895809182
:101A900078002091790030E0322F2227A901330FFE
:101AA000660B770B9A01AB01282BA5E6B0E00E94EC
:101AB000811624E630E040E050E00E944D16DA0145
:101AC000C90181519140A109B10908951F920F9256
:101AD0000FB60F9211248F939F93AF93BF93809172
:101AE0004F0490915004A0915104B091520401967A
:101AF000A11DB11D80934F0490935004A0935104F5
:101B0000B0935204BF91AF919F918F910F900FBEF0
:101B10000F901F90189583E294EF90938900809323
:101B20008800109280008CE080938100789482E09D
:101B300080936F0008952FB7F89460914F047091CF
:101B4000500480915104909152042FBF08958FB793
:101B5000F89410924F041092500410925104109275
:101B600052048FBF08950E94D513789408950C9461
:101B70009915CF93DF93EC018991882319F00E9486
:101B80009915FACFDF91CF910895CF93C82F90E0A8
:101B900024E0959587952A95E1F78A3010F4805DC9
:101BA00001C0895C0E9499158C2F8F708A3010F0CB
:101BB000895C01C0805DCF910C949915CF93C82F9B
:101BC000892F0E94C50D8C2FCF910C94C50D2F929B
:101BD0003F924F925F926F927F928F929F92AF92BD
:101BE000BF92CF92DF92EF92FF920F931F93CF930A
:101BF000DF93CDB7DEB763970FB6F894DEBF0FBEA5
:101C0000CDBF6B017C0197FF0DC0F094E094D094A0
:101C1000C094C11CD11CE11CF11C81E090E09B8BA5
:101C20008A8B02C01B8A1A8AFE0131965F018E01DF
:101C3000055F1F4FF98BE88B66246394712C812C10
:101C4000912CAAE0B0E09301A4010E9481161B012F
:101C50002C01C701B6019101A2010E944D1693010A
:101C6000A4010E944D16E889F9892193F98BE88B2C
:101C7000822F220F990BAA0BBB0BC81AD90AEA0AAA
:101C8000FB0A310142010E171F07D9F68A899B8989
:101C9000892B19F08DE20E94991520E030E0F801BF
:101CA00082918F01811106C02115310519F4EA15C1
:101CB000FB0529F4805D0E94991521E030E00A15AA
:101CC0001B0569F763960FB6F894DEBF0FBECDBF54
:101CD000DF91CF911F910F91FF90EF90DF90CF9008
:101CE000BF90AF909F908F907F906F905F904F903C
:101CF0003F902F9008950C946F150C949615FF92B9
:101D00000F931F93CF93DF93EC01062FF72E1882CA
:101D10000E946F1510E08823D9F00E944315882394
:101D2000B9F00E944A15803210F089931F5FE02FAE
:101D3000FF2D482F50E02191222339F0022E000C74
:101D4000330B42175307B9F702C08D3051F7188291
:101D5000812FDF91CF911F910F91FF9008950F93E5
:101D60001F93CF93DF938C01EC01699170E080E0C9
:101D700090E00E94E70D0C5F1F4F8EE20E949915C4
:101D8000699170E080E090E00E94E70DC017D107F4
:101D9000A1F78FEF91E0DF91CF911F910F910C94FC
:101DA000B90DCF93DF93EC0182E20E94B70DCE0113
:101DB0000E94B90D82E2DF91CF910C94B70D88EFAC
:101DC00091E00C94B90DDC01809153048D3229F41B
:101DD0008FEF9FEFE4E5F4E004C081E090E0E3E5FD
:101DE000F4E011961C921E926AE040812D913C9184
:101DF00011974423C1F0629FA001639F500D1124ED
:101E000011965C934E93219130ED320F3A30B8F435
:101E1000022E000C330B20533109240F351F11966D
:101E20003C932E93E2CF289FA001299F500D389F0D
:101E3000500D11244D935C9381E090E0089580E073
:101E400090E008950C94B70D0C94B90D0C94C50D49
:101E50000C94DE0D0C94E70D0C946F150C949615F4
:101E6000FF920F931F93CF93DF93EC01062FF72E72
:101E700018820E946F1510E08823D9F00E94431544
:101E80008823B9F00E944A15803210F089931F5FB1
:101E9000E02FFF2D482F50E02191222339F0022E10
:101EA000000C330B42175307B9F702C08D3051F7BE
:101EB0001882812FDF91CF911F910F91FF9008958C
:101EC00062E072E083E594E00E94300F882349F0DD
:101ED000E82FF0E0EE5AFB4F80818F3289F3803299
:101EE00079F308950F931F93CF93DF9300D000D021
:101EF0001F92CDB7DEB762E072E083E594E00E9406
:101F0000300F65E072E083E594E00E946812892B4F
:101F100009F0BBC162E072E083E594E00E94300FFB
:101F200060E873E083E594E00E946812892B09F071
:101F300081C262E072E083E594E00E94300F6AE0C3
:101F400072E083E594E00E946812892B09F072C266
:101F50008DE193E00E94B90D8FEF91E00E94B90DE1
:101F600081E192E00E94B90D8FEF91E00E94B90DDE
:101F70008BE192E00E94B90D81E095E00E94D10EC4
:101F80008CE20E94B70D8FEF91E00E94B90D88E2BC
:101F900092E00E94B90D8DE095E00E94D10E8CE296
:101FA0000E94B70D8FEF91E00E94B90D8CE392E093
:101FB0000E94B90D89E195E00E94D10E8CE20E9449
:101FC000B70D8FEF91E00E94B90D81E592E00E947C
:101FD000B90D609125057091260580912705909196
:101FE00028050E94760B8C01FC01128682E20E9479
:101FF000B70DC8010E94B90D82E20E94B70D8CE2B4
:102000000E94B70D8FEF91E00E94B90D89E692E032
:102010000E94B90D809129050E94C50D0AE215E0C4
:102020008AE30E94B70DF80181918F010E94C50DCE
:10203000F5E00F321F07A1F78DE792E00E94B90D7E
:102040008FEF91E00E94B90D80E892E00E94B90DF7
:102050008FE295E00E94D10E8FEF91E00E94B90DC2
:1020600080E493E00E94B90D8FEF91E00E94B90DDA
:1020700084E992E00E94B90D6091A6047091A704D2
:10208000072E000C880B990B0E94E70D8CE20E9432
:10209000B70D8FEF91E00E94B90D82EA92E00E94A5
:1020A000B90D6091A8047091A904072E000C880B4B
:1020B000990B0E94E70D8CE20E94B70D8FEF91E023
:1020C0000E94B90D80EB92E00E94B90D6091AA04C4
:1020D0007091AB04072E000C880B990B0E94E70D42
:1020E0008CE20E94B70D8FEF91E00E94B90D8EEB4C
:1020F00092E00E94B90D6091AC047091AD04072E7E
:10210000000C880B990B0E94E70D8CE20E94B70D22
:102110008FEF91E00E94B90D8CEC92E00E94B90D16
:102120006091000170910101072E000C880B990B42
:102130000E94E70D8CE20E94B70D8FEF91E00E94A4
:10214000B90D8DED92E00E94B90D80910001909142
:1021500001012091A6043091A704821793071CF077
:1021600088EE92E020C02091A8043091A904821743
:1021700093071CF080EF92E016C02091AC043091E0
:10218000AD04281739071CF488EF92E00CC02091A9
:10219000AA043091AB04281739071CF48FEF92E0A2
:1021A00002C087E093E00E94B90D8CE20E94B70D57
:1021B0008FEF91E00E94B90D8FE093E00E94B90D7E
:1021C0008FEF91E00E94B90D10E00E9444091817AA
:1021D00008F048C0812F90E0A0E0B0E09E012B5FA6
:1021E0003F4FAE014F5F5F4FBC01CD010E945D09C3
:1021F000112339F08CE20E94B70D8FEF91E00E941D
:10220000B90D89E193E00E94B90D8FEF91E00E9432
:10221000B90D8FE193E00E94B90D82E20E94B70DE3
:1022200069817A818B819C810E94760B0E94B90D15
:1022300082E20E94B70D8CE20E94B70D82E393E028
:102240000E94B90D6D8170E080E090E00E94E70D82
:102250008FEF91E00E94B90D8EE393E00E94B90DDB
:102260001F5FB3CF8FEF91E00E94B90D84E493E03C
:102270000E94B90D8FEF91E00E94B90D82E493E0C6
:102280000E94B90D8FEF91E017C168E473E083E518
:1022900094E00E946812892B09F0D8C062E072E0D5
:1022A00083E594E00E94300F60E873E083E594E0FA
:1022B0000E946812892B09F0BDC06DE473E083E5CC
:1022C00094E00E94300F61E573E083E594E00E94A2
:1022D0006812892B89F569E573E083E594E00E9433
:1022E000300F6DE573E083E594E00E946812892B5E
:1022F00009F0A0C062E072E083E594E00E94300F34
:1023000064E673E083E594E00E946812892B29F467
:102310008CE693E00E94B90D8FC063E773E083E51C
:1023200094E00E946812892B09F084C08CE693E047
:102330000E94B90D0E9411066AE773E083E594E0FC
:102340000E946812892B09F075C06DE473E083E583
:1023500094E00E94300F62E873E083E594E00E940D
:102360006812892B09F066C06AE873E083E594E09F
:102370000E94300F6DE873E083E594E00E946812DC
:10238000892B91F462E072E083E594E00E94300FC3
:10239000CE0101960E94E30E892B09F44BC089817E
:1023A0009A810E9462054FC067E973E083E594E07B
:1023B0000E946812892B89F462E072E083E594E060
:1023C0000E94300FCE0101960E94E30E892B91F1FD
:1023D00089819A810E94870536C061EA73E083E5AE
:1023E00094E00E946812892B89F462E072E083E530
:1023F00094E00E94300FCE0101960E94E30E892BDB
:10240000C9F089819A810E94D9051DC06BEA73E0E9
:1024100083E594E00E946812892B61F462E072E027
:1024200083E594E00E94300FCE0101960E94E30EF6
:10243000892B29F40E94DF0E0E94600F3FC0898122
:102440009A810E94B005892BA9F1F4CF65EB73E066
:1024500083E594E00E946812892B61F762E072E0E4
:1024600083E594E00E94300F60E873E083E594E038
:102470000E946812892BF1F662E072E083E594E035
:102480000E94300F6AE773E083E594E00E946812CF
:10249000892B81F662E072E083E594E00E94300FC0
:1024A0006DEB73E083E594E00E946812892B11F6CE
:1024B0000E9427098CE693E00E94B90D0F900F90BF
:1024C0000F900F900F90DF91CF911F910F91089572
:1024D000DC01FB019D91992341F08191891784F0E2
:1024E0009817C4F78FEF9FEF089581E090E0208167
:1024F000211102C080E090E09195819591090895A5
:1025000081E090E00895DC0190E020E061507109E5
:10251000422F50E0FD01E40FF51F4617570720F446
:102520008081980F2F5FF4CF919590830895611566
:1025300071058105910541F060932C0170932D0187
:1025400080932E0190932F012115310541055105EE
:1025500041F0209328013093290140932A015093A0
:102560002B0108954F925F926F927F928F929F926C
:10257000AF92BF92CF92DF92EF92FF92CF93DF9311
:1025800000D000D0CDB7DEB72B013C0129833A83C0
:102590004B835C83C0902801D0902901E0902A01F0
:1025A000F0902B01A701960144275527A9E6B0E931
:1025B0000E9481166701EE24FF244B015C018C0C04
:1025C0009D1CAE1CBF1C8092280190922901A092F4
:1025D0002A01B0922B01C0902C01D0902D01E090E7
:1025E0002E01F0902F01A701960144275527A0E561
:1025F000B6E40E9481166701EE24FF24C60ED71EA2
:10260000E81EF91EC0922C01D0922D01E0922E01FD
:10261000F0922F01D40199278827BC01CD016C0DC0
:102620007D1D8E1D9F1D29813A814B815C8124195E
:102630003509460957090E942B16CB01840D951DBB
:102640000F900F900F900F90DF91CF91FF90EF9030
:10265000DF90CF90BF90AF909F908F907F906F90C2
:102660005F904F900895CF93DB01FC0120812D32C4
:1026700021F401966FEF7FEF02C061E070E01196E8
:102680001C921E92FC01CAE020818D919C911197B1
:102690002223C1F0C89FA001C99F500D112411969B
:1026A0005C934E93219180ED820F8A30B8F4022E14
:1026B000000C330B20533109240F351F11963C9326
:1026C0002E93E2CF869F9001879F300D969F300D0D
:1026D00011242D933C9381E090E002C080E090E0D3
:1026E000CF9108958091FD04833561F48091FE04BB
:1026F000853441F481E090E02091FF04223521F0FF
:1027000080E002C080E090E0EDEFF4E020E0319165
:10271000230F35E0E533F307D1F7222311F080E0F2
:1027200090E00895CF93DF93CDB7DEB7E7970FB66C
:10273000F894DEBF0FBECDBF87E3E3EAF1E0DE0130
:10274000119601900D928A95E1F767E370E0CE0152
:1027500001960E94831247E3BE016F5F7F4F80E0C6
:1027600090E00E943607E7960FB6F894DEBF0FBEE2
:10277000CDBFDF91CF9108950E947F07892BE1F7AC
:1027800047E36DEF74E080E090E00E946A070E94EA
:102790007213892B49F40E94921347E36DEF74E0A2
:1027A00080E090E00C946A0708951092C00087E6DC
:1027B00090E09093C5008093C400E1ECF0E088E1E4
:1027C000808386E08093C2008081806A8083089540
:1027D0001F920F920FB60F9211242F933F938F9356
:1027E0009F93EF93FF9380919904882309F4F0C09D
:1027F0008091C60090919804992309F4E3C090EE6B
:10280000980F9F3518F08D3009F059C0209195042C
:102810009091960430E0291B3109215031092F7322
:102820003327232B61F0E0919604F0E0EC5CFA4F43
:102830008083909196049F5F9F739093960420915C
:1028400093049091940430E0291B310921503109FF
:102850002F733327232B89F0E0919404F0E0EC5898
:10286000FA4F8083909194049F5F9F739093940498
:102870009091C10090629093C1008D3009F0C5C065
:10288000809193042091940490E0821B9109019718
:102890008F739927892B69F0E0919404F0E0EC584C
:1028A000FA4F8AE08083809194048F5F8F738093C6
:1028B0009404809197048F5F80939704A6C088301A
:1028C00011F08F37C1F5809196042091950490E026
:1028D000821B91098F739927892B09F496C0E09187
:1028E0009604F0E0EC5CFA4F808180919604815070
:1028F0008F7380939604809193042091940490E0C8
:10290000821B910901978F739927892B09F47DC048
:10291000E0919404F0E0EC58FA4F8FE780838091C7
:1029200094048F5F8F73809394048091C1008062C0
:102930008093C1006AC0843009F067C0809196041A
:102940002091950490E0821B91098F739927892B20
:1029500031F1E0919604F0E0EC5CFA4F80818D302B
:10296000F1F0809195042091960490E0821B9109EA
:1029700001978F739927892B91F0E0919604F0E0ED
:10298000EC5CFA4F8DE08083809196048F5F8F73AB
:1029900080939604809197048F5F80939704809131
:1029A00095042091960490E0821B910901978F7302
:1029B0009927892B51F1E0919604F0E0EC5CFA4FF5
:1029C00084E019C0833009F581E0809398041DC02C
:1029D000809195042091960490E0821B91090197C3
:1029E0008F739927892B79F0E0919604F0E080911C
:1029F000C600EC5CFA4F8083809196048F5F8F73E2
:102A00008093960402C08091C600FF91EF919F9140
:102A10008F913F912F910F900FBE0F901F9018959F
:102A20001F920F920FB60F9211242F938F939F93A3
:102A3000EF93FF93809194042091930490E0821B84
:102A400091098F739927892B79F0E0919304F0E035
:102A5000EC58FA4F80818093C600809193048F5F79
:102A60008F738093930405C08091C1008F7D809304
:102A7000C100FF91EF919F918F912F910F900FBE09
:102A80000F901F9018958091960490919504891B42
:102A90008F730895809196042091950490E0821B95
:102AA00091098F739927892BC1F0E0919504F0E08B
:102AB000EC5CFA4F8081909195049F5F9F73909397
:102AC000950490919904992349F08D3039F49091AF
:102AD0009704915090939704089580E0089581E0C1
:102AE00080939904809196042091950490E0821B34
:102AF00091098F739927892BB1F0E0919504F0E04B
:102B0000EC5CFA4F8081843071F410929804E0916B
:102B10009504F0E0EC5CFA4F8081809195048F5F22
:102B20008F73809395048091980408958091970401
:102B300008950FB607FE0EC020919304909194045F
:102B400030E0291B3109215031092F733327232B02
:102B500099F30DC0209193049091940430E0291BC7
:102B60003109215031092F733327232B61F0E09174
:102B70009404F0E0EC58FA4F8083809194048F5FC6
:102B80008F73809394048091C10080628093C10010
:102B900008951F93CF93DF93EC0180E011E0180FAD
:102BA000FE01E80FF11D8081882321F00E94991514
:102BB000812FF4CFDF91CF911F9108951F93CF9371
:102BC000DF93EC0180E011E0180FFE01E80FF11D2A
:102BD0008491882321F00E949915812FF4CFDF91F1
:102BE000CF911F910895DB018F939F930E948116CF
:102BF000BF91AF91A29F800D911DA39F900DB29F99
:102C0000900D11240895AA1BBB1B51E107C0AA1FF8
:102C1000BB1FA617B70710F0A61BB70B881F991F7D
:102C20005A95A9F780959095BC01CD01089597FB21
:102C3000072E16F4009407D077FD09D00E940316E2
:102C400007FC05D03EF4909581959F4F08957095AF
:102C500061957F4F0895A1E21A2EAA1BBB1BFD01AF
:102C60000DC0AA1FBB1FEE1FFF1FA217B307E4076B
:102C7000F50720F0A21BB30BE40BF50B661F771FC3
:102C8000881F991F1A9469F76095709580959095A3
:102C90009B01AC01BD01CF010895052E97FB1EF4E9
:102CA00000940E94641657FD07D00E942B1607FC63
:102CB00003D04EF40C9464165095409530952195B0
:102CC0003F4F4F4F5F4F0895909580957095619558
:102CD0007F4F8F4F9F4F0895EE0FFF1F0590F49188
:102CE000E02D0994A29FB001B39FC001A39F700D76
:102CF000811D1124911DB29F700D811D1124911D04
:102D000008950E947216A59F900DB49F900DA49FE8
:102D1000800D911D11240895FC0101900020E9F718
:0E2D2000809590958E0F9F1F0895F894FFCF19
:102D2E00030B443100802500002D00040B443000BD
:102D3E00802500002D0002060024F400010C6174B1
:082D4E006D6567613332380046
:102D5600580041535500FF03FE030000010000C068
:102D6600A801640030302F30302F30303030203022
:102D7600303A30303A303000E5559A15B53B121FDF
:102D86005345523438362050726F6A656374203367
:102D9600202D20496E746567726174696F6E0D0A25
:102DA60000536F68616D5F4368616B7261626F7239
:102DB6007479000D0A00436F6E6E656374696F6EF9
:102DC6002045737461626C69736865640D0A00431B
:102DD6006F6E6E656374696F6E204C6F73740D0A47
:102DE600002D002E0020001F1C1F1E1F1E1F1F1E51
:102DF6001F1E1F5345520053616E64790000000088
:102E0600000000446F75676C617300000000005F8E
:102E1600554E41535349474E454400000000004477
:102E26004F5553414E55534100000D0A414C4152F6
:102E36004D3A200030302F30302F303030302030B7
:102E4600303A30303A303000494E56414C49440D04
:102E56000A002F20004745542000646576696365A3
:102E660000202022767064223A7B00202020202237
:102E76006D6F64656C223A0020202020226D616E01
:102E8600756661637475726572223A00202020208F
:102E96002273657269616C5F6E756D626572223A46
:102EA6000020202020226D616E7566616374757244
:102EB600655F64617465223A0020202020226D61DE
:102EC600635F61646472657373223A2200222C0088
:102ED6002020202022636F756E7472795F636F64A1
:102EE60065223A0020202274637269745F68692241
:102EF6003A00202022747761726E5F6869223A0078
:102F060020202274637269745F6C6F223A0020205D
:102F160022747761726E5F6C6F223A0020202274F1
:102F2600656D7065726174757265223A00202022A3
:102F36007374617465223A00435249545F484900EC
:102F46005741524E5F4849004E4F524D414C005733
:102F560041524E5F4C4F00435249545F4C4F002044
:102F660020226C6F67223A5B00202020207B002005
:102F760020202020202274696D657374616D702293
:102F86003A00226576656E746E756D223A002020D1
:102F960020207D0020205D0050555420002F203F2A
:102FA600006465766963653F002F203D0072657396
:102FB60065743D002266616C736522004F4B415972
:102FC6000D0A002274727565220064657669636570
:102FD6002F00636F6E6669673F003D200074637261
:102FE60069745F68693D00747761726E5F68693DF8
:102FF6000074637269745F6C6F3D00747761726E02
:103006005F6C6F3D0044454C45544520006C6F672E
:023016000000B8
:00000001FF
